{
  "_format": "hh-sol-artifact-1",
  "contractName": "Tracking",
  "sourceName": "contracts/Tracking.sol",
  "abi": [
    {
      "inputs": [],
      "stateMutability": "nonpayable",
      "type": "constructor"
    },
    {
      "anonymous": false,
      "inputs": [
        {
          "indexed": true,
          "internalType": "address",
          "name": "sender",
          "type": "address"
        },
        {
          "indexed": true,
          "internalType": "address",
          "name": "to",
          "type": "address"
        },
        {
          "indexed": false,
          "internalType": "uint256",
          "name": "pickupTime",
          "type": "uint256"
        },
        {
          "indexed": false,
          "internalType": "uint256",
          "name": "distance",
          "type": "uint256"
        },
        {
          "indexed": false,
          "internalType": "uint256",
          "name": "price",
          "type": "uint256"
        },
        {
          "indexed": false,
          "internalType": "string",
          "name": "orderInfo",
          "type": "string"
        }
      ],
      "name": "ShipmentCreated",
      "type": "event"
    },
    {
      "anonymous": false,
      "inputs": [
        {
          "indexed": true,
          "internalType": "address",
          "name": "sender",
          "type": "address"
        },
        {
          "indexed": true,
          "internalType": "address",
          "name": "to",
          "type": "address"
        },
        {
          "indexed": true,
          "internalType": "uint256",
          "name": "deliveryTime",
          "type": "uint256"
        }
      ],
      "name": "ShipmentDelivered",
      "type": "event"
    },
    {
      "anonymous": false,
      "inputs": [
        {
          "indexed": true,
          "internalType": "address",
          "name": "sender",
          "type": "address"
        },
        {
          "indexed": true,
          "internalType": "address",
          "name": "receiver",
          "type": "address"
        },
        {
          "indexed": false,
          "internalType": "uint256",
          "name": "amount",
          "type": "uint256"
        }
      ],
      "name": "ShipmentPaid",
      "type": "event"
    },
    {
      "anonymous": false,
      "inputs": [
        {
          "indexed": true,
          "internalType": "address",
          "name": "sender",
          "type": "address"
        },
        {
          "indexed": true,
          "internalType": "address",
          "name": "receiver",
          "type": "address"
        },
        {
          "indexed": false,
          "internalType": "uint256",
          "name": "pickupTime",
          "type": "uint256"
        }
      ],
      "name": "ShipmentTransit",
      "type": "event"
    },
    {
      "inputs": [
        {
          "internalType": "address",
          "name": "sender",
          "type": "address"
        },
        {
          "internalType": "address",
          "name": "receiver",
          "type": "address"
        },
        {
          "internalType": "uint256",
          "name": "index",
          "type": "uint256"
        }
      ],
      "name": "completeShipment",
      "outputs": [],
      "stateMutability": "nonpayable",
      "type": "function"
    },
    {
      "inputs": [
        {
          "internalType": "address",
          "name": "sender",
          "type": "address"
        },
        {
          "internalType": "uint256",
          "name": "price",
          "type": "uint256"
        },
        {
          "internalType": "uint256",
          "name": "distance",
          "type": "uint256"
        },
        {
          "internalType": "string",
          "name": "orderInfo",
          "type": "string"
        }
      ],
      "name": "createShipment",
      "outputs": [],
      "stateMutability": "payable",
      "type": "function"
    },
    {
      "inputs": [],
      "name": "getAllTransactions",
      "outputs": [
        {
          "components": [
            {
              "internalType": "address",
              "name": "sender",
              "type": "address"
            },
            {
              "internalType": "address",
              "name": "receiver",
              "type": "address"
            },
            {
              "internalType": "uint256",
              "name": "pickupTime",
              "type": "uint256"
            },
            {
              "internalType": "uint256",
              "name": "deliveryTime",
              "type": "uint256"
            },
            {
              "internalType": "uint256",
              "name": "distance",
              "type": "uint256"
            },
            {
              "internalType": "uint256",
              "name": "price",
              "type": "uint256"
            },
            {
              "internalType": "enum Tracking.ShipmentStatus",
              "name": "status",
              "type": "uint8"
            },
            {
              "internalType": "bool",
              "name": "isPaid",
              "type": "bool"
            },
            {
              "internalType": "string",
              "name": "orderInfo",
              "type": "string"
            }
          ],
          "internalType": "struct Tracking.TypeShipment[]",
          "name": "",
          "type": "tuple[]"
        }
      ],
      "stateMutability": "view",
      "type": "function"
    },
    {
      "inputs": [
        {
          "internalType": "address",
          "name": "sender",
          "type": "address"
        },
        {
          "internalType": "uint256",
          "name": "index",
          "type": "uint256"
        }
      ],
      "name": "getShipment",
      "outputs": [
        {
          "internalType": "address",
          "name": "",
          "type": "address"
        },
        {
          "internalType": "address",
          "name": "",
          "type": "address"
        },
        {
          "internalType": "uint256",
          "name": "",
          "type": "uint256"
        },
        {
          "internalType": "uint256",
          "name": "",
          "type": "uint256"
        },
        {
          "internalType": "uint256",
          "name": "",
          "type": "uint256"
        },
        {
          "internalType": "uint256",
          "name": "",
          "type": "uint256"
        },
        {
          "internalType": "enum Tracking.ShipmentStatus",
          "name": "",
          "type": "uint8"
        },
        {
          "internalType": "bool",
          "name": "",
          "type": "bool"
        },
        {
          "internalType": "string",
          "name": "",
          "type": "string"
        }
      ],
      "stateMutability": "view",
      "type": "function"
    },
    {
      "inputs": [
        {
          "internalType": "address",
          "name": "sender",
          "type": "address"
        }
      ],
      "name": "getShipmentsCount",
      "outputs": [
        {
          "internalType": "uint256",
          "name": "",
          "type": "uint256"
        }
      ],
      "stateMutability": "view",
      "type": "function"
    },
    {
      "inputs": [],
      "name": "shipmentCount",
      "outputs": [
        {
          "internalType": "uint256",
          "name": "",
          "type": "uint256"
        }
      ],
      "stateMutability": "view",
      "type": "function"
    },
    {
      "inputs": [
        {
          "internalType": "address",
          "name": "",
          "type": "address"
        },
        {
          "internalType": "uint256",
          "name": "",
          "type": "uint256"
        }
      ],
      "name": "shipmentsArr",
      "outputs": [
        {
          "internalType": "address",
          "name": "sender",
          "type": "address"
        },
        {
          "internalType": "address",
          "name": "receiver",
          "type": "address"
        },
        {
          "internalType": "uint256",
          "name": "pickupTime",
          "type": "uint256"
        },
        {
          "internalType": "uint256",
          "name": "deliveryTime",
          "type": "uint256"
        },
        {
          "internalType": "uint256",
          "name": "distance",
          "type": "uint256"
        },
        {
          "internalType": "uint256",
          "name": "price",
          "type": "uint256"
        },
        {
          "internalType": "enum Tracking.ShipmentStatus",
          "name": "status",
          "type": "uint8"
        },
        {
          "internalType": "bool",
          "name": "isPaid",
          "type": "bool"
        },
        {
          "internalType": "string",
          "name": "orderInfo",
          "type": "string"
        }
      ],
      "stateMutability": "view",
      "type": "function"
    },
    {
      "inputs": [
        {
          "internalType": "address",
          "name": "receiver",
          "type": "address"
        },
        {
          "internalType": "uint256",
          "name": "index",
          "type": "uint256"
        },
        {
          "internalType": "address",
          "name": "sender",
          "type": "address"
        }
      ],
      "name": "startShipment",
      "outputs": [],
      "stateMutability": "nonpayable",
      "type": "function"
    }
  ],
  "bytecode": "0x608060405234801561001057600080fd5b5060006001819055506121f3806100286000396000f3fe60806040526004361061007b5760003560e01c806341fdc1951161004e57806341fdc195146101425780638365da541461017f578063aace20b7146101c4578063f211e777146101ef5761007b565b806314493f4c14610080578063179a878c146100c557806317e2157f146100ee57806327506f5314610117575b600080fd5b34801561008c57600080fd5b506100a760048036038101906100a29190611422565b61020b565b6040516100bc999897969594939291906115a2565b60405180910390f35b3480156100d157600080fd5b506100ec60048036038101906100e79190611636565b610358565b005b3480156100fa57600080fd5b5061011560048036038101906101109190611689565b61071e565b005b34801561012357600080fd5b5061012c610992565b60405161013991906118e9565b60405180910390f35b34801561014e57600080fd5b506101696004803603810190610164919061190b565b610bf6565b6040516101769190611938565b60405180910390f35b34801561018b57600080fd5b506101a660048036038101906101a19190611422565b610c41565b6040516101bb999897969594939291906115a2565b60405180910390f35b3480156101d057600080fd5b506101d9610ec7565b6040516101e69190611938565b60405180910390f35b61020960048036038101906102049190611a88565b610ecd565b005b6000602052816000526040600020818154811061022757600080fd5b9060005260206000209060080201600091509150508060000160009054906101000a900473ffffffffffffffffffffffffffffffffffffffff16908060010160009054906101000a900473ffffffffffffffffffffffffffffffffffffffff16908060020154908060030154908060040154908060050154908060060160009054906101000a900460ff16908060060160019054906101000a900460ff16908060070180546102d590611b3a565b80601f016020809104026020016040519081016040528092919081815260200182805461030190611b3a565b801561034e5780601f106103235761010080835404028352916020019161034e565b820191906000526020600020905b81548152906001019060200180831161033157829003601f168201915b5050505050905089565b60008060008573ffffffffffffffffffffffffffffffffffffffff1673ffffffffffffffffffffffffffffffffffffffff16815260200190815260200160002082815481106103aa576103a9611b6b565b5b906000526020600020906008020190506000600283815481106103d0576103cf611b6b565b5b906000526020600020906008020190508373ffffffffffffffffffffffffffffffffffffffff168260010160009054906101000a900473ffffffffffffffffffffffffffffffffffffffff1673ffffffffffffffffffffffffffffffffffffffff1614610472576040517f08c379a000000000000000000000000000000000000000000000000000000000815260040161046990611be6565b60405180910390fd5b6001600281111561048657610485611480565b5b8260060160009054906101000a900460ff1660028111156104aa576104a9611480565b5b146104ea576040517f08c379a00000000000000000000000000000000000000000000000000000000081526004016104e190611c52565b60405180910390fd5b8160060160019054906101000a900460ff161561053c576040517f08c379a000000000000000000000000000000000000000000000000000000000815260040161053390611cbe565b60405180910390fd5b60028260060160006101000a81548160ff0219169083600281111561056457610563611480565b5b021790555060028160060160006101000a81548160ff0219169083600281111561059157610590611480565b5b02179055504282600301819055504281600301819055506000826005015490508260000160009054906101000a900473ffffffffffffffffffffffffffffffffffffffff1673ffffffffffffffffffffffffffffffffffffffff166108fc829081150290604051600060405180830381858888f1935050505015801561061b573d6000803e3d6000fd5b5060018360060160016101000a81548160ff02191690831515021790555060018260060160016101000a81548160ff021916908315150217905550428573ffffffffffffffffffffffffffffffffffffffff168773ffffffffffffffffffffffffffffffffffffffff167f3746ccceb54f44c9b0ee0120e596168d07ec9f6ca303cfdd9810d3b2e2686a2e60405160405180910390a48473ffffffffffffffffffffffffffffffffffffffff168673ffffffffffffffffffffffffffffffffffffffff167f2b6f2473aebafaf8d0889669490135928ec4454d2e29a103fd39693bbca6aef18360405161070e9190611938565b60405180910390a3505050505050565b60008060008373ffffffffffffffffffffffffffffffffffffffff1673ffffffffffffffffffffffffffffffffffffffff16815260200190815260200160002060018461076b9190611d0d565b8154811061077c5761077b611b6b565b5b906000526020600020906008020190506000600260018561079d9190611d0d565b815481106107ae576107ad611b6b565b5b906000526020600020906008020190508473ffffffffffffffffffffffffffffffffffffffff168260010160009054906101000a900473ffffffffffffffffffffffffffffffffffffffff1673ffffffffffffffffffffffffffffffffffffffff1614610850576040517f08c379a000000000000000000000000000000000000000000000000000000000815260040161084790611be6565b60405180910390fd5b6000600281111561086457610863611480565b5b8260060160009054906101000a900460ff16600281111561088857610887611480565b5b146108c8576040517f08c379a00000000000000000000000000000000000000000000000000000000081526004016108bf90611d8d565b60405180910390fd5b60018260060160006101000a81548160ff021916908360028111156108f0576108ef611480565b5b021790555060018160060160006101000a81548160ff0219169083600281111561091d5761091c611480565b5b02179055508473ffffffffffffffffffffffffffffffffffffffff168373ffffffffffffffffffffffffffffffffffffffff167ff597487e17c9fbafa53fbc5814f2fb2e0619bf92da7692de66a11812a5bc2cec84600201546040516109839190611938565b60405180910390a35050505050565b60606000600280549050116109dc576040517f08c379a00000000000000000000000000000000000000000000000000000000081526004016109d390611df9565b60405180910390fd5b6002805480602002602001604051908101604052809291908181526020016000905b82821015610bed5783829060005260206000209060080201604051806101200160405290816000820160009054906101000a900473ffffffffffffffffffffffffffffffffffffffff1673ffffffffffffffffffffffffffffffffffffffff1673ffffffffffffffffffffffffffffffffffffffff1681526020016001820160009054906101000a900473ffffffffffffffffffffffffffffffffffffffff1673ffffffffffffffffffffffffffffffffffffffff1673ffffffffffffffffffffffffffffffffffffffff168152602001600282015481526020016003820154815260200160048201548152602001600582015481526020016006820160009054906101000a900460ff166002811115610b1b57610b1a611480565b5b6002811115610b2d57610b2c611480565b5b81526020016006820160019054906101000a900460ff16151515158152602001600782018054610b5c90611b3a565b80601f0160208091040260200160405190810160405280929190818152602001828054610b8890611b3a565b8015610bd55780601f10610baa57610100808354040283529160200191610bd5565b820191906000526020600020905b815481529060010190602001808311610bb857829003601f168201915b505050505081525050815260200190600101906109fe565b50505050905090565b60008060008373ffffffffffffffffffffffffffffffffffffffff1673ffffffffffffffffffffffffffffffffffffffff168152602001908152602001600020805490509050919050565b600080600080600080600080606060008060008d73ffffffffffffffffffffffffffffffffffffffff1673ffffffffffffffffffffffffffffffffffffffff1681526020019081526020016000208b81548110610ca157610ca0611b6b565b5b9060005260206000209060080201604051806101200160405290816000820160009054906101000a900473ffffffffffffffffffffffffffffffffffffffff1673ffffffffffffffffffffffffffffffffffffffff1673ffffffffffffffffffffffffffffffffffffffff1681526020016001820160009054906101000a900473ffffffffffffffffffffffffffffffffffffffff1673ffffffffffffffffffffffffffffffffffffffff1673ffffffffffffffffffffffffffffffffffffffff168152602001600282015481526020016003820154815260200160048201548152602001600582015481526020016006820160009054906101000a900460ff166002811115610db457610db3611480565b5b6002811115610dc657610dc5611480565b5b81526020016006820160019054906101000a900460ff16151515158152602001600782018054610df590611b3a565b80601f0160208091040260200160405190810160405280929190818152602001828054610e2190611b3a565b8015610e6e5780601f10610e4357610100808354040283529160200191610e6e565b820191906000526020600020905b815481529060010190602001808311610e5157829003601f168201915b505050505081525050905080600001518160200151826040015183606001518460a0015185608001518660c001518760e00151886101000151995099509950995099509950995099509950509295985092959850929598565b60015481565b823414610f0f576040517f08c379a0000000000000000000000000000000000000000000000000000000008152600401610f0690611e8b565b60405180910390fd5b600042905060006040518061012001604052808773ffffffffffffffffffffffffffffffffffffffff1681526020013373ffffffffffffffffffffffffffffffffffffffff1681526020018381526020016000815260200185815260200186815260200160006002811115610f8757610f86611480565b5b81526020016000151581526020018481525090506000808773ffffffffffffffffffffffffffffffffffffffff1673ffffffffffffffffffffffffffffffffffffffff16815260200190815260200160002081908060018154018082558091505060019003906000526020600020906008020160009091909190915060008201518160000160006101000a81548173ffffffffffffffffffffffffffffffffffffffff021916908373ffffffffffffffffffffffffffffffffffffffff16021790555060208201518160010160006101000a81548173ffffffffffffffffffffffffffffffffffffffff021916908373ffffffffffffffffffffffffffffffffffffffff16021790555060408201518160020155606082015181600301556080820151816004015560a0820151816005015560c08201518160060160006101000a81548160ff021916908360028111156110e4576110e3611480565b5b021790555060e08201518160060160016101000a81548160ff02191690831515021790555061010082015181600701908161111f9190612057565b5050506001600081548092919061113590612129565b919050555060026040518061012001604052808873ffffffffffffffffffffffffffffffffffffffff1681526020013373ffffffffffffffffffffffffffffffffffffffff16815260200184815260200160008152602001868152602001878152602001600060028111156111ad576111ac611480565b5b815260200160001515815260200185815250908060018154018082558091505060019003906000526020600020906008020160009091909190915060008201518160000160006101000a81548173ffffffffffffffffffffffffffffffffffffffff021916908373ffffffffffffffffffffffffffffffffffffffff16021790555060208201518160010160006101000a81548173ffffffffffffffffffffffffffffffffffffffff021916908373ffffffffffffffffffffffffffffffffffffffff16021790555060408201518160020155606082015181600301556080820151816004015560a0820151816005015560c08201518160060160006101000a81548160ff021916908360028111156112c9576112c8611480565b5b021790555060e08201518160060160016101000a81548160ff0219169083151502179055506101008201518160070190816113049190612057565b5050508573ffffffffffffffffffffffffffffffffffffffff163373ffffffffffffffffffffffffffffffffffffffff167fdc2c14456ba256e65dbb915da77d8cf8d1709cb9d842e63fa0858b5ce38be68b8487898860405161136a9493929190612171565b60405180910390a3505050505050565b6000604051905090565b600080fd5b600080fd5b600073ffffffffffffffffffffffffffffffffffffffff82169050919050565b60006113b98261138e565b9050919050565b6113c9816113ae565b81146113d457600080fd5b50565b6000813590506113e6816113c0565b92915050565b6000819050919050565b6113ff816113ec565b811461140a57600080fd5b50565b60008135905061141c816113f6565b92915050565b6000806040838503121561143957611438611384565b5b6000611447858286016113d7565b92505060206114588582860161140d565b9150509250929050565b61146b816113ae565b82525050565b61147a816113ec565b82525050565b7f4e487b7100000000000000000000000000000000000000000000000000000000600052602160045260246000fd5b600381106114c0576114bf611480565b5b50565b60008190506114d1826114af565b919050565b60006114e1826114c3565b9050919050565b6114f1816114d6565b82525050565b60008115159050919050565b61150c816114f7565b82525050565b600081519050919050565b600082825260208201905092915050565b60005b8381101561154c578082015181840152602081019050611531565b60008484015250505050565b6000601f19601f8301169050919050565b600061157482611512565b61157e818561151d565b935061158e81856020860161152e565b61159781611558565b840191505092915050565b6000610120820190506115b8600083018c611462565b6115c5602083018b611462565b6115d2604083018a611471565b6115df6060830189611471565b6115ec6080830188611471565b6115f960a0830187611471565b61160660c08301866114e8565b61161360e0830185611503565b8181036101008301526116268184611569565b90509a9950505050505050505050565b60008060006060848603121561164f5761164e611384565b5b600061165d868287016113d7565b935050602061166e868287016113d7565b925050604061167f8682870161140d565b9150509250925092565b6000806000606084860312156116a2576116a1611384565b5b60006116b0868287016113d7565b93505060206116c18682870161140d565b92505060406116d2868287016113d7565b9150509250925092565b600081519050919050565b600082825260208201905092915050565b6000819050602082019050919050565b611711816113ae565b82525050565b611720816113ec565b82525050565b61172f816114d6565b82525050565b61173e816114f7565b82525050565b600082825260208201905092915050565b600061176082611512565b61176a8185611744565b935061177a81856020860161152e565b61178381611558565b840191505092915050565b6000610120830160008301516117a76000860182611708565b5060208301516117ba6020860182611708565b5060408301516117cd6040860182611717565b5060608301516117e06060860182611717565b5060808301516117f36080860182611717565b5060a083015161180660a0860182611717565b5060c083015161181960c0860182611726565b5060e083015161182c60e0860182611735565b506101008301518482036101008601526118468282611755565b9150508091505092915050565b600061185f838361178e565b905092915050565b6000602082019050919050565b600061187f826116dc565b61188981856116e7565b93508360208202850161189b856116f8565b8060005b858110156118d757848403895281516118b88582611853565b94506118c383611867565b925060208a0199505060018101905061189f565b50829750879550505050505092915050565b600060208201905081810360008301526119038184611874565b905092915050565b60006020828403121561192157611920611384565b5b600061192f848285016113d7565b91505092915050565b600060208201905061194d6000830184611471565b92915050565b600080fd5b600080fd5b7f4e487b7100000000000000000000000000000000000000000000000000000000600052604160045260246000fd5b61199582611558565b810181811067ffffffffffffffff821117156119b4576119b361195d565b5b80604052505050565b60006119c761137a565b90506119d3828261198c565b919050565b600067ffffffffffffffff8211156119f3576119f261195d565b5b6119fc82611558565b9050602081019050919050565b82818337600083830152505050565b6000611a2b611a26846119d8565b6119bd565b905082815260208101848484011115611a4757611a46611958565b5b611a52848285611a09565b509392505050565b600082601f830112611a6f57611a6e611953565b5b8135611a7f848260208601611a18565b91505092915050565b60008060008060808587031215611aa257611aa1611384565b5b6000611ab0878288016113d7565b9450506020611ac18782880161140d565b9350506040611ad28782880161140d565b925050606085013567ffffffffffffffff811115611af357611af2611389565b5b611aff87828801611a5a565b91505092959194509250565b7f4e487b7100000000000000000000000000000000000000000000000000000000600052602260045260246000fd5b60006002820490506001821680611b5257607f821691505b602082108103611b6557611b64611b0b565b5b50919050565b7f4e487b7100000000000000000000000000000000000000000000000000000000600052603260045260246000fd5b7f496e76616c696420526563656976657200000000000000000000000000000000600082015250565b6000611bd060108361151d565b9150611bdb82611b9a565b602082019050919050565b60006020820190508181036000830152611bff81611bc3565b9050919050565b7f536869706d656e74206e6f7420696e205472616e736974000000000000000000600082015250565b6000611c3c60178361151d565b9150611c4782611c06565b602082019050919050565b60006020820190508181036000830152611c6b81611c2f565b9050919050565b7f536869706d656e7420616c726561647920706169640000000000000000000000600082015250565b6000611ca860158361151d565b9150611cb382611c72565b602082019050919050565b60006020820190508181036000830152611cd781611c9b565b9050919050565b7f4e487b7100000000000000000000000000000000000000000000000000000000600052601160045260246000fd5b6000611d18826113ec565b9150611d23836113ec565b9250828203905081811115611d3b57611d3a611cde565b5b92915050565b7f536869706d656e7420616c726561647920696e205472616e7369740000000000600082015250565b6000611d77601b8361151d565b9150611d8282611d41565b602082019050919050565b60006020820190508181036000830152611da681611d6a565b9050919050565b7f4e6f20736869706d656e747320617661696c61626c652e000000000000000000600082015250565b6000611de360178361151d565b9150611dee82611dad565b602082019050919050565b60006020820190508181036000830152611e1281611dd6565b9050919050565b7f5061796d656e7420416d6f756e74206d757374204d617463682074686520446560008201527f6c697665727920616d6f756e7400000000000000000000000000000000000000602082015250565b6000611e75602d8361151d565b9150611e8082611e19565b604082019050919050565b60006020820190508181036000830152611ea481611e68565b9050919050565b60008190508160005260206000209050919050565b60006020601f8301049050919050565b600082821b905092915050565b600060088302611f0d7fffffffffffffffffffffffffffffffffffffffffffffffffffffffffffffffff82611ed0565b611f178683611ed0565b95508019841693508086168417925050509392505050565b6000819050919050565b6000611f54611f4f611f4a846113ec565b611f2f565b6113ec565b9050919050565b6000819050919050565b611f6e83611f39565b611f82611f7a82611f5b565b848454611edd565b825550505050565b600090565b611f97611f8a565b611fa2818484611f65565b505050565b5b81811015611fc657611fbb600082611f8f565b600181019050611fa8565b5050565b601f82111561200b57611fdc81611eab565b611fe584611ec0565b81016020851015611ff4578190505b61200861200085611ec0565b830182611fa7565b50505b505050565b600082821c905092915050565b600061202e60001984600802612010565b1980831691505092915050565b6000612047838361201d565b9150826002028217905092915050565b61206082611512565b67ffffffffffffffff8111156120795761207861195d565b5b6120838254611b3a565b61208e828285611fca565b600060209050601f8311600181146120c157600084156120af578287015190505b6120b9858261203b565b865550612121565b601f1984166120cf86611eab565b60005b828110156120f7578489015182556001820191506020850194506020810190506120d2565b868310156121145784890151612110601f89168261201d565b8355505b6001600288020188555050505b505050505050565b6000612134826113ec565b91507fffffffffffffffffffffffffffffffffffffffffffffffffffffffffffffffff820361216657612165611cde565b5b600182019050919050565b60006080820190506121866000830187611471565b6121936020830186611471565b6121a06040830185611471565b81810360608301526121b28184611569565b90509594505050505056fea264697066735822122029431438249c400739528548310ab7b5866be2b020c1f7464e1c7d5919417bfa64736f6c63430008120033",
  "linkReferences": {},
  "deployedLinkReferences": {}
}