{
  "_format": "hh-sol-artifact-1",
  "contractName": "Tracking",
  "sourceName": "contracts/Tracking.sol",
  "abi": [
    {
      "inputs": [],
      "stateMutability": "nonpayable",
      "type": "constructor"
    },
    {
      "anonymous": false,
      "inputs": [
        {
          "indexed": true,
          "internalType": "address",
          "name": "sender",
          "type": "address"
        },
        {
          "indexed": true,
          "internalType": "address",
          "name": "to",
          "type": "address"
        },
        {
          "indexed": false,
          "internalType": "uint256",
          "name": "pickupTime",
          "type": "uint256"
        },
        {
          "indexed": false,
          "internalType": "uint256",
          "name": "distance",
          "type": "uint256"
        },
        {
          "indexed": false,
          "internalType": "uint256",
          "name": "price",
          "type": "uint256"
        },
        {
          "indexed": false,
          "internalType": "string",
          "name": "orderInfo",
          "type": "string"
        }
      ],
      "name": "ShipmentCreated",
      "type": "event"
    },
    {
      "anonymous": false,
      "inputs": [
        {
          "indexed": true,
          "internalType": "address",
          "name": "sender",
          "type": "address"
        },
        {
          "indexed": true,
          "internalType": "address",
          "name": "to",
          "type": "address"
        },
        {
          "indexed": true,
          "internalType": "uint256",
          "name": "deliveryTime",
          "type": "uint256"
        }
      ],
      "name": "ShipmentDelivered",
      "type": "event"
    },
    {
      "anonymous": false,
      "inputs": [
        {
          "indexed": true,
          "internalType": "address",
          "name": "sender",
          "type": "address"
        },
        {
          "indexed": true,
          "internalType": "address",
          "name": "receiver",
          "type": "address"
        },
        {
          "indexed": false,
          "internalType": "uint256",
          "name": "amount",
          "type": "uint256"
        }
      ],
      "name": "ShipmentPaid",
      "type": "event"
    },
    {
      "anonymous": false,
      "inputs": [
        {
          "indexed": true,
          "internalType": "address",
          "name": "sender",
          "type": "address"
        },
        {
          "indexed": true,
          "internalType": "address",
          "name": "receiver",
          "type": "address"
        },
        {
          "indexed": false,
          "internalType": "uint256",
          "name": "pickupTime",
          "type": "uint256"
        }
      ],
      "name": "ShipmentTransit",
      "type": "event"
    },
    {
      "inputs": [
        {
          "internalType": "address",
          "name": "sender",
          "type": "address"
        },
        {
          "internalType": "address",
          "name": "receiver",
          "type": "address"
        },
        {
          "internalType": "uint256",
          "name": "index",
          "type": "uint256"
        }
      ],
      "name": "completeShipment",
      "outputs": [],
      "stateMutability": "nonpayable",
      "type": "function"
    },
    {
      "inputs": [
        {
          "internalType": "address",
          "name": "receiver",
          "type": "address"
        },
        {
          "internalType": "uint256",
          "name": "pickupTime",
          "type": "uint256"
        },
        {
          "internalType": "uint256",
          "name": "price",
          "type": "uint256"
        },
        {
          "internalType": "uint256",
          "name": "distance",
          "type": "uint256"
        },
        {
          "internalType": "string",
          "name": "orderInfo",
          "type": "string"
        }
      ],
      "name": "createShipment",
      "outputs": [],
      "stateMutability": "payable",
      "type": "function"
    },
    {
      "inputs": [],
      "name": "getAllTransactions",
      "outputs": [
        {
          "components": [
            {
              "internalType": "address",
              "name": "sender",
              "type": "address"
            },
            {
              "internalType": "address",
              "name": "receiver",
              "type": "address"
            },
            {
              "internalType": "uint256",
              "name": "pickupTime",
              "type": "uint256"
            },
            {
              "internalType": "uint256",
              "name": "deliveryTime",
              "type": "uint256"
            },
            {
              "internalType": "uint256",
              "name": "distance",
              "type": "uint256"
            },
            {
              "internalType": "uint256",
              "name": "price",
              "type": "uint256"
            },
            {
              "internalType": "enum Tracking.ShipmentStatus",
              "name": "status",
              "type": "uint8"
            },
            {
              "internalType": "bool",
              "name": "isPaid",
              "type": "bool"
            },
            {
              "internalType": "string",
              "name": "orderInfo",
              "type": "string"
            }
          ],
          "internalType": "struct Tracking.TypeShipment[]",
          "name": "",
          "type": "tuple[]"
        }
      ],
      "stateMutability": "view",
      "type": "function"
    },
    {
      "inputs": [
        {
          "internalType": "address",
          "name": "sender",
          "type": "address"
        },
        {
          "internalType": "uint256",
          "name": "index",
          "type": "uint256"
        }
      ],
      "name": "getShipment",
      "outputs": [
        {
          "internalType": "address",
          "name": "",
          "type": "address"
        },
        {
          "internalType": "address",
          "name": "",
          "type": "address"
        },
        {
          "internalType": "uint256",
          "name": "",
          "type": "uint256"
        },
        {
          "internalType": "uint256",
          "name": "",
          "type": "uint256"
        },
        {
          "internalType": "uint256",
          "name": "",
          "type": "uint256"
        },
        {
          "internalType": "uint256",
          "name": "",
          "type": "uint256"
        },
        {
          "internalType": "enum Tracking.ShipmentStatus",
          "name": "",
          "type": "uint8"
        },
        {
          "internalType": "bool",
          "name": "",
          "type": "bool"
        },
        {
          "internalType": "string",
          "name": "",
          "type": "string"
        }
      ],
      "stateMutability": "view",
      "type": "function"
    },
    {
      "inputs": [
        {
          "internalType": "address",
          "name": "sender",
          "type": "address"
        }
      ],
      "name": "getShipmentsCount",
      "outputs": [
        {
          "internalType": "uint256",
          "name": "",
          "type": "uint256"
        }
      ],
      "stateMutability": "view",
      "type": "function"
    },
    {
      "inputs": [],
      "name": "shipmentCount",
      "outputs": [
        {
          "internalType": "uint256",
          "name": "",
          "type": "uint256"
        }
      ],
      "stateMutability": "view",
      "type": "function"
    },
    {
      "inputs": [
        {
          "internalType": "address",
          "name": "",
          "type": "address"
        },
        {
          "internalType": "uint256",
          "name": "",
          "type": "uint256"
        }
      ],
      "name": "shipmentsArr",
      "outputs": [
        {
          "internalType": "address",
          "name": "sender",
          "type": "address"
        },
        {
          "internalType": "address",
          "name": "receiver",
          "type": "address"
        },
        {
          "internalType": "uint256",
          "name": "pickupTime",
          "type": "uint256"
        },
        {
          "internalType": "uint256",
          "name": "deliveryTime",
          "type": "uint256"
        },
        {
          "internalType": "uint256",
          "name": "distance",
          "type": "uint256"
        },
        {
          "internalType": "uint256",
          "name": "price",
          "type": "uint256"
        },
        {
          "internalType": "enum Tracking.ShipmentStatus",
          "name": "status",
          "type": "uint8"
        },
        {
          "internalType": "bool",
          "name": "isPaid",
          "type": "bool"
        },
        {
          "internalType": "string",
          "name": "orderInfo",
          "type": "string"
        }
      ],
      "stateMutability": "view",
      "type": "function"
    },
    {
      "inputs": [
        {
          "internalType": "address",
          "name": "receiver",
          "type": "address"
        },
        {
          "internalType": "uint256",
          "name": "index",
          "type": "uint256"
        },
        {
          "internalType": "address",
          "name": "sender",
          "type": "address"
        }
      ],
      "name": "startShipment",
      "outputs": [],
      "stateMutability": "nonpayable",
      "type": "function"
    }
  ],
  "bytecode": "0x608060405234801561001057600080fd5b506000600181905550612241806100286000396000f3fe60806040526004361061007b5760003560e01c806341fdc1951161004e57806341fdc1951461014257806342b20e891461017f5780638365da541461019b578063aace20b7146101e05761007b565b806314493f4c14610080578063179a878c146100c557806317e2157f146100ee57806327506f5314610117575b600080fd5b34801561008c57600080fd5b506100a760048036038101906100a29190611836565b61020b565b6040516100bc99989796959493929190611d2e565b60405180910390f35b3480156100d157600080fd5b506100ec60048036038101906100e791906117e7565b610358565b005b3480156100fa57600080fd5b5061011560048036038101906101109190611872565b610802565b005b34801561012357600080fd5b5061012c610b42565b6040516101399190611dc2565b60405180910390f35b34801561014e57600080fd5b50610169600480360381019061016491906117be565b610df2565b6040516101769190611ea4565b60405180910390f35b610199600480360381019061019491906118c1565b610e3d565b005b3480156101a757600080fd5b506101c260048036038101906101bd9190611836565b61138b565b6040516101d799989796959493929190611d2e565b60405180910390f35b3480156101ec57600080fd5b506101f5611683565b6040516102029190611ea4565b60405180910390f35b6000602052816000526040600020818154811061022757600080fd5b9060005260206000209060080201600091509150508060000160009054906101000a900473ffffffffffffffffffffffffffffffffffffffff16908060010160009054906101000a900473ffffffffffffffffffffffffffffffffffffffff16908060020154908060030154908060040154908060050154908060060160009054906101000a900460ff16908060060160019054906101000a900460ff16908060070180546102d590612081565b80601f016020809104026020016040519081016040528092919081815260200182805461030190612081565b801561034e5780601f106103235761010080835404028352916020019161034e565b820191906000526020600020905b81548152906001019060200180831161033157829003601f168201915b5050505050905089565b60008060008573ffffffffffffffffffffffffffffffffffffffff1673ffffffffffffffffffffffffffffffffffffffff16815260200190815260200160002082815481106103d0577f4e487b7100000000000000000000000000000000000000000000000000000000600052603260045260246000fd5b9060005260206000209060080201905060006002838154811061041c577f4e487b7100000000000000000000000000000000000000000000000000000000600052603260045260246000fd5b906000526020600020906008020190508373ffffffffffffffffffffffffffffffffffffffff168260010160009054906101000a900473ffffffffffffffffffffffffffffffffffffffff1673ffffffffffffffffffffffffffffffffffffffff16146104be576040517f08c379a00000000000000000000000000000000000000000000000000000000081526004016104b590611e04565b60405180910390fd5b600160028111156104f8577f4e487b7100000000000000000000000000000000000000000000000000000000600052602160045260246000fd5b8260060160009054906101000a900460ff166002811115610542577f4e487b7100000000000000000000000000000000000000000000000000000000600052602160045260246000fd5b14610582576040517f08c379a000000000000000000000000000000000000000000000000000000000815260040161057990611de4565b60405180910390fd5b8160060160019054906101000a900460ff16156105d4576040517f08c379a00000000000000000000000000000000000000000000000000000000081526004016105cb90611e84565b60405180910390fd5b60028260060160006101000a81548160ff02191690836002811115610622577f4e487b7100000000000000000000000000000000000000000000000000000000600052602160045260246000fd5b021790555060028160060160006101000a81548160ff02191690836002811115610675577f4e487b7100000000000000000000000000000000000000000000000000000000600052602160045260246000fd5b02179055504282600301819055504281600301819055506000826005015490508260000160009054906101000a900473ffffffffffffffffffffffffffffffffffffffff1673ffffffffffffffffffffffffffffffffffffffff166108fc829081150290604051600060405180830381858888f193505050501580156106ff573d6000803e3d6000fd5b5060018360060160016101000a81548160ff02191690831515021790555060018260060160016101000a81548160ff021916908315150217905550428573ffffffffffffffffffffffffffffffffffffffff168773ffffffffffffffffffffffffffffffffffffffff167f3746ccceb54f44c9b0ee0120e596168d07ec9f6ca303cfdd9810d3b2e2686a2e60405160405180910390a48473ffffffffffffffffffffffffffffffffffffffff168673ffffffffffffffffffffffffffffffffffffffff167f2b6f2473aebafaf8d0889669490135928ec4454d2e29a103fd39693bbca6aef1836040516107f29190611ea4565b60405180910390a3505050505050565b60008060008373ffffffffffffffffffffffffffffffffffffffff1673ffffffffffffffffffffffffffffffffffffffff168152602001908152602001600020838154811061087a577f4e487b7100000000000000000000000000000000000000000000000000000000600052603260045260246000fd5b906000526020600020906008020190506000600284815481106108c6577f4e487b7100000000000000000000000000000000000000000000000000000000600052603260045260246000fd5b906000526020600020906008020190508473ffffffffffffffffffffffffffffffffffffffff168260010160009054906101000a900473ffffffffffffffffffffffffffffffffffffffff1673ffffffffffffffffffffffffffffffffffffffff1614610968576040517f08c379a000000000000000000000000000000000000000000000000000000000815260040161095f90611e04565b60405180910390fd5b600060028111156109a2577f4e487b7100000000000000000000000000000000000000000000000000000000600052602160045260246000fd5b8260060160009054906101000a900460ff1660028111156109ec577f4e487b7100000000000000000000000000000000000000000000000000000000600052602160045260246000fd5b14610a2c576040517f08c379a0000000000000000000000000000000000000000000000000000000008152600401610a2390611e44565b60405180910390fd5b60018260060160006101000a81548160ff02191690836002811115610a7a577f4e487b7100000000000000000000000000000000000000000000000000000000600052602160045260246000fd5b021790555060018160060160006101000a81548160ff02191690836002811115610acd577f4e487b7100000000000000000000000000000000000000000000000000000000600052602160045260246000fd5b02179055508473ffffffffffffffffffffffffffffffffffffffff168373ffffffffffffffffffffffffffffffffffffffff167ff597487e17c9fbafa53fbc5814f2fb2e0619bf92da7692de66a11812a5bc2cec8460020154604051610b339190611ea4565b60405180910390a35050505050565b6060600060028054905011610b8c576040517f08c379a0000000000000000000000000000000000000000000000000000000008152600401610b8390611e64565b60405180910390fd5b6002805480602002602001604051908101604052809291908181526020016000905b82821015610de95783829060005260206000209060080201604051806101200160405290816000820160009054906101000a900473ffffffffffffffffffffffffffffffffffffffff1673ffffffffffffffffffffffffffffffffffffffff1673ffffffffffffffffffffffffffffffffffffffff1681526020016001820160009054906101000a900473ffffffffffffffffffffffffffffffffffffffff1673ffffffffffffffffffffffffffffffffffffffff1673ffffffffffffffffffffffffffffffffffffffff168152602001600282015481526020016003820154815260200160048201548152602001600582015481526020016006820160009054906101000a900460ff166002811115610cf1577f4e487b7100000000000000000000000000000000000000000000000000000000600052602160045260246000fd5b6002811115610d29577f4e487b7100000000000000000000000000000000000000000000000000000000600052602160045260246000fd5b81526020016006820160019054906101000a900460ff16151515158152602001600782018054610d5890612081565b80601f0160208091040260200160405190810160405280929190818152602001828054610d8490612081565b8015610dd15780601f10610da657610100808354040283529160200191610dd1565b820191906000526020600020905b815481529060010190602001808311610db457829003601f168201915b50505050508152505081526020019060010190610bae565b50505050905090565b60008060008373ffffffffffffffffffffffffffffffffffffffff1673ffffffffffffffffffffffffffffffffffffffff168152602001908152602001600020805490509050919050565b823414610e7f576040517f08c379a0000000000000000000000000000000000000000000000000000000008152600401610e7690611e24565b60405180910390fd5b60006040518061012001604052803373ffffffffffffffffffffffffffffffffffffffff1681526020018773ffffffffffffffffffffffffffffffffffffffff1681526020018681526020016000815260200184815260200185815260200160006002811115610f18577f4e487b7100000000000000000000000000000000000000000000000000000000600052602160045260246000fd5b81526020016000151581526020018381525090506000803373ffffffffffffffffffffffffffffffffffffffff1673ffffffffffffffffffffffffffffffffffffffff16815260200190815260200160002081908060018154018082558091505060019003906000526020600020906008020160009091909190915060008201518160000160006101000a81548173ffffffffffffffffffffffffffffffffffffffff021916908373ffffffffffffffffffffffffffffffffffffffff16021790555060208201518160010160006101000a81548173ffffffffffffffffffffffffffffffffffffffff021916908373ffffffffffffffffffffffffffffffffffffffff16021790555060408201518160020155606082015181600301556080820151816004015560a0820151816005015560c08201518160060160006101000a81548160ff0219169083600281111561109b577f4e487b7100000000000000000000000000000000000000000000000000000000600052602160045260246000fd5b021790555060e08201518160060160016101000a81548160ff0219169083151502179055506101008201518160070190805190602001906110dd929190611689565b505050600160008154809291906110f3906120b3565b919050555060026040518061012001604052803373ffffffffffffffffffffffffffffffffffffffff1681526020018873ffffffffffffffffffffffffffffffffffffffff1681526020018781526020016000815260200185815260200186815260200160006002811115611191577f4e487b7100000000000000000000000000000000000000000000000000000000600052602160045260246000fd5b815260200160001515815260200184815250908060018154018082558091505060019003906000526020600020906008020160009091909190915060008201518160000160006101000a81548173ffffffffffffffffffffffffffffffffffffffff021916908373ffffffffffffffffffffffffffffffffffffffff16021790555060208201518160010160006101000a81548173ffffffffffffffffffffffffffffffffffffffff021916908373ffffffffffffffffffffffffffffffffffffffff16021790555060408201518160020155606082015181600301556080820151816004015560a0820151816005015560c08201518160060160006101000a81548160ff021916908360028111156112d3577f4e487b7100000000000000000000000000000000000000000000000000000000600052602160045260246000fd5b021790555060e08201518160060160016101000a81548160ff021916908315150217905550610100820151816007019080519060200190611315929190611689565b5050508573ffffffffffffffffffffffffffffffffffffffff163373ffffffffffffffffffffffffffffffffffffffff167fdc2c14456ba256e65dbb915da77d8cf8d1709cb9d842e63fa0858b5ce38be68b8786888760405161137b9493929190611ebf565b60405180910390a3505050505050565b600080600080600080600080606060008060008d73ffffffffffffffffffffffffffffffffffffffff1673ffffffffffffffffffffffffffffffffffffffff1681526020019081526020016000208b81548110611411577f4e487b7100000000000000000000000000000000000000000000000000000000600052603260045260246000fd5b9060005260206000209060080201604051806101200160405290816000820160009054906101000a900473ffffffffffffffffffffffffffffffffffffffff1673ffffffffffffffffffffffffffffffffffffffff1673ffffffffffffffffffffffffffffffffffffffff1681526020016001820160009054906101000a900473ffffffffffffffffffffffffffffffffffffffff1673ffffffffffffffffffffffffffffffffffffffff1673ffffffffffffffffffffffffffffffffffffffff168152602001600282015481526020016003820154815260200160048201548152602001600582015481526020016006820160009054906101000a900460ff16600281111561154a577f4e487b7100000000000000000000000000000000000000000000000000000000600052602160045260246000fd5b6002811115611582577f4e487b7100000000000000000000000000000000000000000000000000000000600052602160045260246000fd5b81526020016006820160019054906101000a900460ff161515151581526020016007820180546115b190612081565b80601f01602080910402602001604051908101604052809291908181526020018280546115dd90612081565b801561162a5780601f106115ff5761010080835404028352916020019161162a565b820191906000526020600020905b81548152906001019060200180831161160d57829003601f168201915b505050505081525050905080600001518160200151826040015183606001518460a0015185608001518660c001518760e00151886101000151995099509950995099509950995099509950509295985092959850929598565b60015481565b82805461169590612081565b90600052602060002090601f0160209004810192826116b757600085556116fe565b82601f106116d057805160ff19168380011785556116fe565b828001600101855582156116fe579182015b828111156116fd5782518255916020019190600101906116e2565b5b50905061170b919061170f565b5090565b5b80821115611728576000816000905550600101611710565b5090565b600061173f61173a84611f3c565b611f0b565b90508281526020810184848401111561175757600080fd5b61176284828561203f565b509392505050565b600081359050611779816121dd565b92915050565b600082601f83011261179057600080fd5b81356117a084826020860161172c565b91505092915050565b6000813590506117b8816121f4565b92915050565b6000602082840312156117d057600080fd5b60006117de8482850161176a565b91505092915050565b6000806000606084860312156117fc57600080fd5b600061180a8682870161176a565b935050602061181b8682870161176a565b925050604061182c868287016117a9565b9150509250925092565b6000806040838503121561184957600080fd5b60006118578582860161176a565b9250506020611868858286016117a9565b9150509250929050565b60008060006060848603121561188757600080fd5b60006118958682870161176a565b93505060206118a6868287016117a9565b92505060406118b78682870161176a565b9150509250925092565b600080600080600060a086880312156118d957600080fd5b60006118e78882890161176a565b95505060206118f8888289016117a9565b9450506040611909888289016117a9565b935050606061191a888289016117a9565b925050608086013567ffffffffffffffff81111561193757600080fd5b6119438882890161177f565b9150509295509295909350565b600061195c8383611c4b565b905092915050565b61196d81611fd2565b82525050565b61197c81611fd2565b82525050565b600061198d82611f7c565b6119978185611f9f565b9350836020820285016119a985611f6c565b8060005b858110156119e557848403895281516119c68582611950565b94506119d183611f92565b925060208a019950506001810190506119ad565b50829750879550505050505092915050565b611a0081611fe4565b82525050565b611a0f81611fe4565b82525050565b611a1e8161202d565b82525050565b611a2d8161202d565b82525050565b6000611a3e82611f87565b611a488185611fb0565b9350611a5881856020860161204e565b611a61816121b8565b840191505092915050565b6000611a7782611f87565b611a818185611fc1565b9350611a9181856020860161204e565b611a9a816121b8565b840191505092915050565b6000611ab2601783611fc1565b91507f536869706d656e74206e6f7420696e205472616e7369740000000000000000006000830152602082019050919050565b6000611af2601083611fc1565b91507f496e76616c6964205265636569766572000000000000000000000000000000006000830152602082019050919050565b6000611b32602d83611fc1565b91507f5061796d656e7420416d6f756e74206d757374204d617463682074686520446560008301527f6c697665727920616d6f756e74000000000000000000000000000000000000006020830152604082019050919050565b6000611b98601b83611fc1565b91507f536869706d656e7420616c726561647920696e205472616e73697400000000006000830152602082019050919050565b6000611bd8601783611fc1565b91507f4e6f20736869706d656e747320617661696c61626c652e0000000000000000006000830152602082019050919050565b6000611c18601583611fc1565b91507f536869706d656e7420616c7265616479207061696400000000000000000000006000830152602082019050919050565b600061012083016000830151611c646000860182611964565b506020830151611c776020860182611964565b506040830151611c8a6040860182611d10565b506060830151611c9d6060860182611d10565b506080830151611cb06080860182611d10565b5060a0830151611cc360a0860182611d10565b5060c0830151611cd660c0860182611a15565b5060e0830151611ce960e08601826119f7565b50610100830151848203610100860152611d038282611a33565b9150508091505092915050565b611d1981612023565b82525050565b611d2881612023565b82525050565b600061012082019050611d44600083018c611973565b611d51602083018b611973565b611d5e604083018a611d1f565b611d6b6060830189611d1f565b611d786080830188611d1f565b611d8560a0830187611d1f565b611d9260c0830186611a24565b611d9f60e0830185611a06565b818103610100830152611db28184611a6c565b90509a9950505050505050505050565b60006020820190508181036000830152611ddc8184611982565b905092915050565b60006020820190508181036000830152611dfd81611aa5565b9050919050565b60006020820190508181036000830152611e1d81611ae5565b9050919050565b60006020820190508181036000830152611e3d81611b25565b9050919050565b60006020820190508181036000830152611e5d81611b8b565b9050919050565b60006020820190508181036000830152611e7d81611bcb565b9050919050565b60006020820190508181036000830152611e9d81611c0b565b9050919050565b6000602082019050611eb96000830184611d1f565b92915050565b6000608082019050611ed46000830187611d1f565b611ee16020830186611d1f565b611eee6040830185611d1f565b8181036060830152611f008184611a6c565b905095945050505050565b6000604051905081810181811067ffffffffffffffff82111715611f3257611f31612189565b5b8060405250919050565b600067ffffffffffffffff821115611f5757611f56612189565b5b601f19601f8301169050602081019050919050565b6000819050602082019050919050565b600081519050919050565b600081519050919050565b6000602082019050919050565b600082825260208201905092915050565b600082825260208201905092915050565b600082825260208201905092915050565b6000611fdd82612003565b9050919050565b60008115159050919050565b6000819050611ffe826121c9565b919050565b600073ffffffffffffffffffffffffffffffffffffffff82169050919050565b6000819050919050565b600061203882611ff0565b9050919050565b82818337600083830152505050565b60005b8381101561206c578082015181840152602081019050612051565b8381111561207b576000848401525b50505050565b6000600282049050600182168061209957607f821691505b602082108114156120ad576120ac61215a565b5b50919050565b60006120be82612023565b91507fffffffffffffffffffffffffffffffffffffffffffffffffffffffffffffffff8214156120f1576120f06120fc565b5b600182019050919050565b7f4e487b7100000000000000000000000000000000000000000000000000000000600052601160045260246000fd5b7f4e487b7100000000000000000000000000000000000000000000000000000000600052602160045260246000fd5b7f4e487b7100000000000000000000000000000000000000000000000000000000600052602260045260246000fd5b7f4e487b7100000000000000000000000000000000000000000000000000000000600052604160045260246000fd5b6000601f19601f8301169050919050565b600381106121da576121d961212b565b5b50565b6121e681611fd2565b81146121f157600080fd5b50565b6121fd81612023565b811461220857600080fd5b5056fea26469706673582212202df6f1b9be559442d667887bd67ebb9b1c64c3bd7afd2d20dcf802952cf4072c64736f6c63430008000033",
  "linkReferences": {},
  "deployedLinkReferences": {}
}