{
  "_format": "hh-sol-artifact-1",
  "contractName": "Tracking",
  "sourceName": "contracts/Tracking.sol",
  "abi": [
    {
      "inputs": [],
      "stateMutability": "nonpayable",
      "type": "constructor"
    },
    {
      "anonymous": false,
      "inputs": [
        {
          "indexed": true,
          "internalType": "address",
          "name": "sender",
          "type": "address"
        },
        {
          "indexed": true,
          "internalType": "address",
          "name": "to",
          "type": "address"
        },
        {
          "indexed": false,
          "internalType": "uint256",
          "name": "pickupTime",
          "type": "uint256"
        },
        {
          "indexed": false,
          "internalType": "uint256",
          "name": "distance",
          "type": "uint256"
        },
        {
          "indexed": false,
          "internalType": "uint256",
          "name": "price",
          "type": "uint256"
        }
      ],
      "name": "ShipmentCreated",
      "type": "event"
    },
    {
      "anonymous": false,
      "inputs": [
        {
          "indexed": true,
          "internalType": "address",
          "name": "sender",
          "type": "address"
        },
        {
          "indexed": true,
          "internalType": "address",
          "name": "to",
          "type": "address"
        },
        {
          "indexed": true,
          "internalType": "uint256",
          "name": "deliveryTime",
          "type": "uint256"
        }
      ],
      "name": "ShipmentDelivered",
      "type": "event"
    },
    {
      "anonymous": false,
      "inputs": [
        {
          "indexed": true,
          "internalType": "address",
          "name": "sender",
          "type": "address"
        },
        {
          "indexed": true,
          "internalType": "address",
          "name": "receiver",
          "type": "address"
        },
        {
          "indexed": false,
          "internalType": "uint256",
          "name": "amount",
          "type": "uint256"
        }
      ],
      "name": "ShipmentPaid",
      "type": "event"
    },
    {
      "anonymous": false,
      "inputs": [
        {
          "indexed": true,
          "internalType": "address",
          "name": "sender",
          "type": "address"
        },
        {
          "indexed": true,
          "internalType": "address",
          "name": "receiver",
          "type": "address"
        },
        {
          "indexed": false,
          "internalType": "uint256",
          "name": "pickupTime",
          "type": "uint256"
        }
      ],
      "name": "ShipmentTransit",
      "type": "event"
    },
    {
      "inputs": [
        {
          "internalType": "address",
          "name": "sender",
          "type": "address"
        },
        {
          "internalType": "address",
          "name": "receiver",
          "type": "address"
        },
        {
          "internalType": "uint256",
          "name": "index",
          "type": "uint256"
        }
      ],
      "name": "completeShipment",
      "outputs": [],
      "stateMutability": "nonpayable",
      "type": "function"
    },
    {
      "inputs": [
        {
          "internalType": "address",
          "name": "receiver",
          "type": "address"
        },
        {
          "internalType": "uint256",
          "name": "pickupTime",
          "type": "uint256"
        },
        {
          "internalType": "uint256",
          "name": "price",
          "type": "uint256"
        },
        {
          "internalType": "uint256",
          "name": "distance",
          "type": "uint256"
        }
      ],
      "name": "createShipment",
      "outputs": [],
      "stateMutability": "payable",
      "type": "function"
    },
    {
      "inputs": [],
      "name": "getAllTransactions",
      "outputs": [
        {
          "components": [
            {
              "internalType": "address",
              "name": "sender",
              "type": "address"
            },
            {
              "internalType": "address",
              "name": "receiver",
              "type": "address"
            },
            {
              "internalType": "uint256",
              "name": "pickupTime",
              "type": "uint256"
            },
            {
              "internalType": "uint256",
              "name": "deliveryTime",
              "type": "uint256"
            },
            {
              "internalType": "uint256",
              "name": "distance",
              "type": "uint256"
            },
            {
              "internalType": "uint256",
              "name": "price",
              "type": "uint256"
            },
            {
              "internalType": "enum Tracking.ShipmentStatus",
              "name": "status",
              "type": "uint8"
            },
            {
              "internalType": "bool",
              "name": "isPaid",
              "type": "bool"
            }
          ],
          "internalType": "struct Tracking.TypeShipment[]",
          "name": "",
          "type": "tuple[]"
        }
      ],
      "stateMutability": "view",
      "type": "function"
    },
    {
      "inputs": [
        {
          "internalType": "address",
          "name": "sender",
          "type": "address"
        },
        {
          "internalType": "uint256",
          "name": "index",
          "type": "uint256"
        }
      ],
      "name": "getShipment",
      "outputs": [
        {
          "internalType": "address",
          "name": "",
          "type": "address"
        },
        {
          "internalType": "address",
          "name": "",
          "type": "address"
        },
        {
          "internalType": "uint256",
          "name": "",
          "type": "uint256"
        },
        {
          "internalType": "uint256",
          "name": "",
          "type": "uint256"
        },
        {
          "internalType": "uint256",
          "name": "",
          "type": "uint256"
        },
        {
          "internalType": "uint256",
          "name": "",
          "type": "uint256"
        },
        {
          "internalType": "enum Tracking.ShipmentStatus",
          "name": "",
          "type": "uint8"
        },
        {
          "internalType": "bool",
          "name": "",
          "type": "bool"
        }
      ],
      "stateMutability": "view",
      "type": "function"
    },
    {
      "inputs": [
        {
          "internalType": "address",
          "name": "sender",
          "type": "address"
        }
      ],
      "name": "getShipmentsCount",
      "outputs": [
        {
          "internalType": "uint256",
          "name": "",
          "type": "uint256"
        }
      ],
      "stateMutability": "view",
      "type": "function"
    },
    {
      "inputs": [],
      "name": "shipmentCount",
      "outputs": [
        {
          "internalType": "uint256",
          "name": "",
          "type": "uint256"
        }
      ],
      "stateMutability": "view",
      "type": "function"
    },
    {
      "inputs": [
        {
          "internalType": "address",
          "name": "",
          "type": "address"
        },
        {
          "internalType": "uint256",
          "name": "",
          "type": "uint256"
        }
      ],
      "name": "shipmentsArr",
      "outputs": [
        {
          "internalType": "address",
          "name": "sender",
          "type": "address"
        },
        {
          "internalType": "address",
          "name": "receiver",
          "type": "address"
        },
        {
          "internalType": "uint256",
          "name": "pickupTime",
          "type": "uint256"
        },
        {
          "internalType": "uint256",
          "name": "deliveryTime",
          "type": "uint256"
        },
        {
          "internalType": "uint256",
          "name": "distance",
          "type": "uint256"
        },
        {
          "internalType": "uint256",
          "name": "price",
          "type": "uint256"
        },
        {
          "internalType": "enum Tracking.ShipmentStatus",
          "name": "status",
          "type": "uint8"
        },
        {
          "internalType": "bool",
          "name": "isPaid",
          "type": "bool"
        }
      ],
      "stateMutability": "view",
      "type": "function"
    },
    {
      "inputs": [
        {
          "internalType": "address",
          "name": "receiver",
          "type": "address"
        },
        {
          "internalType": "uint256",
          "name": "index",
          "type": "uint256"
        },
        {
          "internalType": "address",
          "name": "sender",
          "type": "address"
        }
      ],
      "name": "startShipment",
      "outputs": [],
      "stateMutability": "nonpayable",
      "type": "function"
    }
  ],
  "bytecode": "0x608060405234801561001057600080fd5b506000600181905550611c27806100286000396000f3fe60806040526004361061007b5760003560e01c806341fdc1951161004e57806341fdc195146101415780638365da541461017e578063aace20b7146101c2578063cbc4b181146101ed5761007b565b806314493f4c14610080578063179a878c146100c457806317e2157f146100ed57806327506f5314610116575b600080fd5b34801561008c57600080fd5b506100a760048036038101906100a291906114da565b610209565b6040516100bb9897969594939291906118bf565b60405180910390f35b3480156100d057600080fd5b506100eb60048036038101906100e6919061148b565b6102c8565b005b3480156100f957600080fd5b50610114600480360381019061010f9190611516565b610772565b005b34801561012257600080fd5b5061012b610ab2565b604051610138919061193d565b60405180910390f35b34801561014d57600080fd5b5061016860048036038101906101639190611462565b610c88565b60405161017591906119ff565b60405180910390f35b34801561018a57600080fd5b506101a560048036038101906101a091906114da565b610cd3565b6040516101b99897969594939291906118bf565b60405180910390f35b3480156101ce57600080fd5b506101d7610f2f565b6040516101e491906119ff565b60405180910390f35b61020760048036038101906102029190611565565b610f35565b005b6000602052816000526040600020818154811061022557600080fd5b9060005260206000209060070201600091509150508060000160009054906101000a900473ffffffffffffffffffffffffffffffffffffffff16908060010160009054906101000a900473ffffffffffffffffffffffffffffffffffffffff16908060020154908060030154908060040154908060050154908060060160009054906101000a900460ff16908060060160019054906101000a900460ff16905088565b60008060008573ffffffffffffffffffffffffffffffffffffffff1673ffffffffffffffffffffffffffffffffffffffff1681526020019081526020016000208281548110610340577f4e487b7100000000000000000000000000000000000000000000000000000000600052603260045260246000fd5b9060005260206000209060070201905060006002838154811061038c577f4e487b7100000000000000000000000000000000000000000000000000000000600052603260045260246000fd5b906000526020600020906007020190508373ffffffffffffffffffffffffffffffffffffffff168260010160009054906101000a900473ffffffffffffffffffffffffffffffffffffffff1673ffffffffffffffffffffffffffffffffffffffff161461042e576040517f08c379a00000000000000000000000000000000000000000000000000000000081526004016104259061197f565b60405180910390fd5b60016002811115610468577f4e487b7100000000000000000000000000000000000000000000000000000000600052602160045260246000fd5b8260060160009054906101000a900460ff1660028111156104b2577f4e487b7100000000000000000000000000000000000000000000000000000000600052602160045260246000fd5b146104f2576040517f08c379a00000000000000000000000000000000000000000000000000000000081526004016104e99061195f565b60405180910390fd5b8160060160019054906101000a900460ff1615610544576040517f08c379a000000000000000000000000000000000000000000000000000000000815260040161053b906119df565b60405180910390fd5b60028260060160006101000a81548160ff02191690836002811115610592577f4e487b7100000000000000000000000000000000000000000000000000000000600052602160045260246000fd5b021790555060028160060160006101000a81548160ff021916908360028111156105e5577f4e487b7100000000000000000000000000000000000000000000000000000000600052602160045260246000fd5b02179055504282600301819055504281600301819055506000826005015490508260000160009054906101000a900473ffffffffffffffffffffffffffffffffffffffff1673ffffffffffffffffffffffffffffffffffffffff166108fc829081150290604051600060405180830381858888f1935050505015801561066f573d6000803e3d6000fd5b5060018360060160016101000a81548160ff02191690831515021790555060018260060160016101000a81548160ff021916908315150217905550428573ffffffffffffffffffffffffffffffffffffffff168773ffffffffffffffffffffffffffffffffffffffff167f3746ccceb54f44c9b0ee0120e596168d07ec9f6ca303cfdd9810d3b2e2686a2e60405160405180910390a48473ffffffffffffffffffffffffffffffffffffffff168673ffffffffffffffffffffffffffffffffffffffff167f2b6f2473aebafaf8d0889669490135928ec4454d2e29a103fd39693bbca6aef18360405161076291906119ff565b60405180910390a3505050505050565b60008060008373ffffffffffffffffffffffffffffffffffffffff1673ffffffffffffffffffffffffffffffffffffffff16815260200190815260200160002083815481106107ea577f4e487b7100000000000000000000000000000000000000000000000000000000600052603260045260246000fd5b90600052602060002090600702019050600060028481548110610836577f4e487b7100000000000000000000000000000000000000000000000000000000600052603260045260246000fd5b906000526020600020906007020190508473ffffffffffffffffffffffffffffffffffffffff168260010160009054906101000a900473ffffffffffffffffffffffffffffffffffffffff1673ffffffffffffffffffffffffffffffffffffffff16146108d8576040517f08c379a00000000000000000000000000000000000000000000000000000000081526004016108cf9061197f565b60405180910390fd5b60006002811115610912577f4e487b7100000000000000000000000000000000000000000000000000000000600052602160045260246000fd5b8260060160009054906101000a900460ff16600281111561095c577f4e487b7100000000000000000000000000000000000000000000000000000000600052602160045260246000fd5b1461099c576040517f08c379a0000000000000000000000000000000000000000000000000000000008152600401610993906119bf565b60405180910390fd5b60018260060160006101000a81548160ff021916908360028111156109ea577f4e487b7100000000000000000000000000000000000000000000000000000000600052602160045260246000fd5b021790555060018160060160006101000a81548160ff02191690836002811115610a3d577f4e487b7100000000000000000000000000000000000000000000000000000000600052602160045260246000fd5b02179055508473ffffffffffffffffffffffffffffffffffffffff168373ffffffffffffffffffffffffffffffffffffffff167ff597487e17c9fbafa53fbc5814f2fb2e0619bf92da7692de66a11812a5bc2cec8460020154604051610aa391906119ff565b60405180910390a35050505050565b60606002805480602002602001604051908101604052809291908181526020016000905b82821015610c7f5783829060005260206000209060070201604051806101000160405290816000820160009054906101000a900473ffffffffffffffffffffffffffffffffffffffff1673ffffffffffffffffffffffffffffffffffffffff1673ffffffffffffffffffffffffffffffffffffffff1681526020016001820160009054906101000a900473ffffffffffffffffffffffffffffffffffffffff1673ffffffffffffffffffffffffffffffffffffffff1673ffffffffffffffffffffffffffffffffffffffff168152602001600282015481526020016003820154815260200160048201548152602001600582015481526020016006820160009054906101000a900460ff166002811115610c19577f4e487b7100000000000000000000000000000000000000000000000000000000600052602160045260246000fd5b6002811115610c51577f4e487b7100000000000000000000000000000000000000000000000000000000600052602160045260246000fd5b81526020016006820160019054906101000a900460ff16151515158152505081526020019060010190610ad6565b50505050905090565b60008060008373ffffffffffffffffffffffffffffffffffffffff1673ffffffffffffffffffffffffffffffffffffffff168152602001908152602001600020805490509050919050565b60008060008060008060008060008060008c73ffffffffffffffffffffffffffffffffffffffff1673ffffffffffffffffffffffffffffffffffffffff1681526020019081526020016000208a81548110610d57577f4e487b7100000000000000000000000000000000000000000000000000000000600052603260045260246000fd5b9060005260206000209060070201604051806101000160405290816000820160009054906101000a900473ffffffffffffffffffffffffffffffffffffffff1673ffffffffffffffffffffffffffffffffffffffff1673ffffffffffffffffffffffffffffffffffffffff1681526020016001820160009054906101000a900473ffffffffffffffffffffffffffffffffffffffff1673ffffffffffffffffffffffffffffffffffffffff1673ffffffffffffffffffffffffffffffffffffffff168152602001600282015481526020016003820154815260200160048201548152602001600582015481526020016006820160009054906101000a900460ff166002811115610e90577f4e487b7100000000000000000000000000000000000000000000000000000000600052602160045260246000fd5b6002811115610ec8577f4e487b7100000000000000000000000000000000000000000000000000000000600052602160045260246000fd5b81526020016006820160019054906101000a900460ff161515151581525050905080600001518160200151826040015183606001518460a0015185608001518660c001518760e0015198509850985098509850985098509850509295985092959890939650565b60015481565b813414610f77576040517f08c379a0000000000000000000000000000000000000000000000000000000008152600401610f6e9061199f565b60405180910390fd5b60006040518061010001604052803373ffffffffffffffffffffffffffffffffffffffff1681526020018673ffffffffffffffffffffffffffffffffffffffff1681526020018581526020016000815260200183815260200184815260200160006002811115611010577f4e487b7100000000000000000000000000000000000000000000000000000000600052602160045260246000fd5b81526020016000151581525090506000803373ffffffffffffffffffffffffffffffffffffffff1673ffffffffffffffffffffffffffffffffffffffff16815260200190815260200160002081908060018154018082558091505060019003906000526020600020906007020160009091909190915060008201518160000160006101000a81548173ffffffffffffffffffffffffffffffffffffffff021916908373ffffffffffffffffffffffffffffffffffffffff16021790555060208201518160010160006101000a81548173ffffffffffffffffffffffffffffffffffffffff021916908373ffffffffffffffffffffffffffffffffffffffff16021790555060408201518160020155606082015181600301556080820151816004015560a0820151816005015560c08201518160060160006101000a81548160ff0219169083600281111561118d577f4e487b7100000000000000000000000000000000000000000000000000000000600052602160045260246000fd5b021790555060e08201518160060160016101000a81548160ff0219169083151502179055505050600160008154809291906111c790611b08565b919050555060026040518061010001604052803373ffffffffffffffffffffffffffffffffffffffff1681526020018773ffffffffffffffffffffffffffffffffffffffff1681526020018681526020016000815260200184815260200185815260200160006002811115611265577f4e487b7100000000000000000000000000000000000000000000000000000000600052602160045260246000fd5b815260200160001515815250908060018154018082558091505060019003906000526020600020906007020160009091909190915060008201518160000160006101000a81548173ffffffffffffffffffffffffffffffffffffffff021916908373ffffffffffffffffffffffffffffffffffffffff16021790555060208201518160010160006101000a81548173ffffffffffffffffffffffffffffffffffffffff021916908373ffffffffffffffffffffffffffffffffffffffff16021790555060408201518160020155606082015181600301556080820151816004015560a0820151816005015560c08201518160060160006101000a81548160ff021916908360028111156113a1577f4e487b7100000000000000000000000000000000000000000000000000000000600052602160045260246000fd5b021790555060e08201518160060160016101000a81548160ff02191690831515021790555050508473ffffffffffffffffffffffffffffffffffffffff163373ffffffffffffffffffffffffffffffffffffffff167f5001b34ecf2db5b7bbeddcbbe761ec9ecadcc7638018b98ce3e24995b0e946b686858760405161142993929190611a1a565b60405180910390a35050505050565b60008135905061144781611bc3565b92915050565b60008135905061145c81611bda565b92915050565b60006020828403121561147457600080fd5b600061148284828501611438565b91505092915050565b6000806000606084860312156114a057600080fd5b60006114ae86828701611438565b93505060206114bf86828701611438565b92505060406114d08682870161144d565b9150509250925092565b600080604083850312156114ed57600080fd5b60006114fb85828601611438565b925050602061150c8582860161144d565b9150509250929050565b60008060006060848603121561152b57600080fd5b600061153986828701611438565b935050602061154a8682870161144d565b925050604061155b86828701611438565b9150509250925092565b6000806000806080858703121561157b57600080fd5b600061158987828801611438565b945050602061159a8782880161144d565b93505060406115ab8782880161144d565b92505060606115bc8782880161144d565b91505092959194509250565b60006115d483836117ff565b6101008301905092915050565b6115ea81611a9b565b82525050565b6115f981611a9b565b82525050565b600061160a82611a61565b6116148185611a79565b935061161f83611a51565b8060005b8381101561165057815161163788826115c8565b975061164283611a6c565b925050600181019050611623565b5085935050505092915050565b61166681611aad565b82525050565b61167581611aad565b82525050565b61168481611af6565b82525050565b61169381611af6565b82525050565b60006116a6601783611a8a565b91507f536869706d656e74206e6f7420696e205472616e7369740000000000000000006000830152602082019050919050565b60006116e6601083611a8a565b91507f496e76616c6964205265636569766572000000000000000000000000000000006000830152602082019050919050565b6000611726602d83611a8a565b91507f5061796d656e7420416d6f756e74206d757374204d617463682074686520446560008301527f6c697665727920616d6f756e74000000000000000000000000000000000000006020830152604082019050919050565b600061178c601b83611a8a565b91507f536869706d656e7420616c726561647920696e205472616e73697400000000006000830152602082019050919050565b60006117cc601583611a8a565b91507f536869706d656e7420616c7265616479207061696400000000000000000000006000830152602082019050919050565b6101008201600082015161181660008501826115e1565b50602082015161182960208501826115e1565b50604082015161183c60408501826118a1565b50606082015161184f60608501826118a1565b50608082015161186260808501826118a1565b5060a082015161187560a08501826118a1565b5060c082015161188860c085018261167b565b5060e082015161189b60e085018261165d565b50505050565b6118aa81611aec565b82525050565b6118b981611aec565b82525050565b6000610100820190506118d5600083018b6115f0565b6118e2602083018a6115f0565b6118ef60408301896118b0565b6118fc60608301886118b0565b61190960808301876118b0565b61191660a08301866118b0565b61192360c083018561168a565b61193060e083018461166c565b9998505050505050505050565b6000602082019050818103600083015261195781846115ff565b905092915050565b6000602082019050818103600083015261197881611699565b9050919050565b60006020820190508181036000830152611998816116d9565b9050919050565b600060208201905081810360008301526119b881611719565b9050919050565b600060208201905081810360008301526119d88161177f565b9050919050565b600060208201905081810360008301526119f8816117bf565b9050919050565b6000602082019050611a1460008301846118b0565b92915050565b6000606082019050611a2f60008301866118b0565b611a3c60208301856118b0565b611a4960408301846118b0565b949350505050565b6000819050602082019050919050565b600081519050919050565b6000602082019050919050565b600082825260208201905092915050565b600082825260208201905092915050565b6000611aa682611acc565b9050919050565b60008115159050919050565b6000819050611ac782611baf565b919050565b600073ffffffffffffffffffffffffffffffffffffffff82169050919050565b6000819050919050565b6000611b0182611ab9565b9050919050565b6000611b1382611aec565b91507fffffffffffffffffffffffffffffffffffffffffffffffffffffffffffffffff821415611b4657611b45611b51565b5b600182019050919050565b7f4e487b7100000000000000000000000000000000000000000000000000000000600052601160045260246000fd5b7f4e487b7100000000000000000000000000000000000000000000000000000000600052602160045260246000fd5b60038110611bc057611bbf611b80565b5b50565b611bcc81611a9b565b8114611bd757600080fd5b50565b611be381611aec565b8114611bee57600080fd5b5056fea2646970667358221220a9766a21b42a7909926ed4b57a6112592dc255e2a23556322b4b74945539b0fa64736f6c63430008000033",
  "linkReferences": {},
  "deployedLinkReferences": {}
}